{
  "contractName": "ZombieHelper",
  "abi": [
    {
      "constant": false,
      "inputs": [
        {
          "name": "_zombieId",
          "type": "uint256"
        },
        {
          "name": "_kittyId",
          "type": "uint256"
        }
      ],
      "name": "feedOnKitty",
      "outputs": [],
      "payable": false,
      "stateMutability": "nonpayable",
      "type": "function"
    },
    {
      "constant": true,
      "inputs": [
        {
          "name": "",
          "type": "uint256"
        }
      ],
      "name": "zombies",
      "outputs": [
        {
          "name": "name",
          "type": "string"
        },
        {
          "name": "dna",
          "type": "uint256"
        },
        {
          "name": "level",
          "type": "uint32"
        },
        {
          "name": "readyTime",
          "type": "uint32"
        },
        {
          "name": "winCount",
          "type": "uint16"
        },
        {
          "name": "lossCount",
          "type": "uint16"
        }
      ],
      "payable": false,
      "stateMutability": "view",
      "type": "function"
    },
    {
      "constant": true,
      "inputs": [
        {
          "name": "",
          "type": "uint256"
        }
      ],
      "name": "zombieToOwner",
      "outputs": [
        {
          "name": "",
          "type": "address"
        }
      ],
      "payable": false,
      "stateMutability": "view",
      "type": "function"
    },
    {
      "constant": false,
      "inputs": [
        {
          "name": "_address",
          "type": "address"
        }
      ],
      "name": "setKittyContractAddress",
      "outputs": [],
      "payable": false,
      "stateMutability": "nonpayable",
      "type": "function"
    },
    {
      "constant": false,
      "inputs": [],
      "name": "renounceOwnership",
      "outputs": [],
      "payable": false,
      "stateMutability": "nonpayable",
      "type": "function"
    },
    {
      "constant": false,
      "inputs": [
        {
          "name": "_name",
          "type": "string"
        }
      ],
      "name": "createRandomZombie",
      "outputs": [],
      "payable": false,
      "stateMutability": "nonpayable",
      "type": "function"
    },
    {
      "constant": true,
      "inputs": [],
      "name": "owner",
      "outputs": [
        {
          "name": "",
          "type": "address"
        }
      ],
      "payable": false,
      "stateMutability": "view",
      "type": "function"
    },
    {
      "constant": true,
      "inputs": [],
      "name": "isOwner",
      "outputs": [
        {
          "name": "",
          "type": "bool"
        }
      ],
      "payable": false,
      "stateMutability": "view",
      "type": "function"
    },
    {
      "constant": false,
      "inputs": [
        {
          "name": "newOwner",
          "type": "address"
        }
      ],
      "name": "transferOwnership",
      "outputs": [],
      "payable": false,
      "stateMutability": "nonpayable",
      "type": "function"
    },
    {
      "anonymous": false,
      "inputs": [
        {
          "indexed": false,
          "name": "zombieId",
          "type": "uint256"
        },
        {
          "indexed": false,
          "name": "name",
          "type": "string"
        },
        {
          "indexed": false,
          "name": "dna",
          "type": "uint256"
        }
      ],
      "name": "NewZombie",
      "type": "event"
    },
    {
      "anonymous": false,
      "inputs": [
        {
          "indexed": true,
          "name": "previousOwner",
          "type": "address"
        },
        {
          "indexed": true,
          "name": "newOwner",
          "type": "address"
        }
      ],
      "name": "OwnershipTransferred",
      "type": "event"
    },
    {
      "constant": false,
      "inputs": [
        {
          "name": "_fee",
          "type": "uint256"
        }
      ],
      "name": "setLevelUpFee",
      "outputs": [],
      "payable": false,
      "stateMutability": "nonpayable",
      "type": "function"
    },
    {
      "constant": false,
      "inputs": [
        {
          "name": "_zombieId",
          "type": "uint256"
        }
      ],
      "name": "levelUp",
      "outputs": [],
      "payable": true,
      "stateMutability": "payable",
      "type": "function"
    },
    {
      "constant": false,
      "inputs": [
        {
          "name": "_zombieId",
          "type": "uint256"
        },
        {
          "name": "_newName",
          "type": "string"
        }
      ],
      "name": "changeName",
      "outputs": [],
      "payable": false,
      "stateMutability": "nonpayable",
      "type": "function"
    },
    {
      "constant": false,
      "inputs": [
        {
          "name": "_zombieId",
          "type": "uint256"
        },
        {
          "name": "_newDna",
          "type": "uint256"
        }
      ],
      "name": "changeDna",
      "outputs": [],
      "payable": false,
      "stateMutability": "nonpayable",
      "type": "function"
    },
    {
      "constant": true,
      "inputs": [
        {
          "name": "_owner",
          "type": "address"
        }
      ],
      "name": "getZombiesByOwner",
      "outputs": [
        {
          "name": "",
          "type": "uint256[]"
        }
      ],
      "payable": false,
      "stateMutability": "view",
      "type": "function"
    }
  ],
  "bytecode": "0x60806040526010600155600154600a0a6002556201518060035566038d7ea4c68000600855336000806101000a81548173ffffffffffffffffffffffffffffffffffffffff021916908373ffffffffffffffffffffffffffffffffffffffff1602179055506000809054906101000a900473ffffffffffffffffffffffffffffffffffffffff1673ffffffffffffffffffffffffffffffffffffffff16600073ffffffffffffffffffffffffffffffffffffffff167f8be0079c531659141344cd1fd0a4f28419497f9722a3daafe3b4186f6b6457e060405160405180910390a36117a7806100ef6000396000f3fe6080604052600436106100ca576000357c0100000000000000000000000000000000000000000000000000000000900480630ce90ec2146100cf57806317a7f4cc146100fd5780632052465e146101425780634412e10414610241578063528b7b8f146102e75780635f4623f1146103625780635faf2880146103b3578063715018a6146103f85780637bff0a011461040f5780638da5cb5b146104d75780638f32d59b1461052e578063c39cbef11461055d578063ccf670f8146105ed578063f2fde38b14610628575b600080fd5b6100fb600480360360208110156100e557600080fd5b8101908080359060200190929190505050610679565b005b34801561010957600080fd5b506101406004803603604081101561012057600080fd5b810190808035906020019092919080359060200190929190505050610714565b005b34801561014e57600080fd5b5061017b6004803603602081101561016557600080fd5b81019080803590602001909291905050506108bb565b60405180806020018781526020018663ffffffff1663ffffffff1681526020018563ffffffff1663ffffffff1681526020018461ffff1661ffff1681526020018361ffff1661ffff168152602001828103825288818151815260200191508051906020019080838360005b838110156102015780820151818401526020810190506101e6565b50505050905090810190601f16801561022e5780820380516001836020036101000a031916815260200191505b5097505050505050505060405180910390f35b34801561024d57600080fd5b506102906004803603602081101561026457600080fd5b81019080803573ffffffffffffffffffffffffffffffffffffffff1690602001909291905050506109da565b6040518080602001828103825283818151815260200191508051906020019060200280838360005b838110156102d35780820151818401526020810190506102b8565b505050509050019250505060405180910390f35b3480156102f357600080fd5b506103206004803603602081101561030a57600080fd5b8101908080359060200190929190505050610b0b565b604051808273ffffffffffffffffffffffffffffffffffffffff1673ffffffffffffffffffffffffffffffffffffffff16815260200191505060405180910390f35b34801561036e57600080fd5b506103b16004803603602081101561038557600080fd5b81019080803573ffffffffffffffffffffffffffffffffffffffff169060200190929190505050610b3e565b005b3480156103bf57600080fd5b506103f6600480360360408110156103d657600080fd5b810190808035906020019092919080359060200190929190505050610b95565b005b34801561040457600080fd5b5061040d610c77565b005b34801561041b57600080fd5b506104d56004803603602081101561043257600080fd5b810190808035906020019064010000000081111561044f57600080fd5b82018360208201111561046157600080fd5b8035906020019184600183028401116401000000008311171561048357600080fd5b91908080601f016020809104026020016040519081016040528093929190818152602001838380828437600081840152601f19601f820116905080830192505050505050509192919290505050610d49565b005b3480156104e357600080fd5b506104ec610dc3565b604051808273ffffffffffffffffffffffffffffffffffffffff1673ffffffffffffffffffffffffffffffffffffffff16815260200191505060405180910390f35b34801561053a57600080fd5b50610543610dec565b604051808215151515815260200191505060405180910390f35b34801561056957600080fd5b506105eb6004803603604081101561058057600080fd5b8101908080359060200190929190803590602001906401000000008111156105a757600080fd5b8201836020820111156105b957600080fd5b803590602001918460018302840111640100000000831117156105db57600080fd5b9091929391929390505050610e43565b005b3480156105f957600080fd5b506106266004803603602081101561061057600080fd5b8101908080359060200190929190505050610f31565b005b34801561063457600080fd5b506106776004803603602081101561064b57600080fd5b81019080803573ffffffffffffffffffffffffffffffffffffffff169060200190929190505050610f4e565b005b6008543414151561068957600080fd5b6106d3600160048381548110151561069d57fe5b906000526020600020906003020160020160009054906101000a900463ffffffff1663ffffffff16610f6d90919063ffffffff16565b6004828154811015156106e257fe5b906000526020600020906003020160020160006101000a81548163ffffffff021916908363ffffffff16021790555050565b6000600760009054906101000a900473ffffffffffffffffffffffffffffffffffffffff1673ffffffffffffffffffffffffffffffffffffffff1663e98b7f4d836040518263ffffffff167c0100000000000000000000000000000000000000000000000000000000028152600401808281526020019150506101406040518083038186803b1580156107a657600080fd5b505afa1580156107ba573d6000803e3d6000fd5b505050506040513d6101408110156107d157600080fd5b8101908080519060200190929190805190602001909291908051906020019092919080519060200190929190805190602001909291908051906020019092919080519060200190929190805190602001909291908051906020019092919080519060200190929190505050909192939495969798509091929394959697509091929394959650909192939495509091929394509091929350909192509091509050809150506108b683826040805190810160405280600581526020017f6b69747479000000000000000000000000000000000000000000000000000000815250610f97565b505050565b6004818154811015156108ca57fe5b9060005260206000209060030201600091509050806000018054600181600116156101000203166002900480601f0160208091040260200160405190810160405280929190818152602001828054600181600116156101000203166002900480156109765780601f1061094b57610100808354040283529160200191610976565b820191906000526020600020905b81548152906001019060200180831161095957829003601f168201915b5050505050908060010154908060020160009054906101000a900463ffffffff16908060020160049054906101000a900463ffffffff16908060020160089054906101000a900461ffff169080600201600a9054906101000a900461ffff16905086565b606080600660008473ffffffffffffffffffffffffffffffffffffffff1673ffffffffffffffffffffffffffffffffffffffff16815260200190815260200160002054604051908082528060200260200182016040528015610a4b5781602001602082028038833980820191505090505b509050600080905060008090505b600480549050811015610b00578473ffffffffffffffffffffffffffffffffffffffff166005600083815260200190815260200160002060009054906101000a900473ffffffffffffffffffffffffffffffffffffffff1673ffffffffffffffffffffffffffffffffffffffff161415610af357808383815181101515610adc57fe5b906020019060200201818152505081806001019250505b8080600101915050610a59565b508192505050919050565b60056020528060005260406000206000915054906101000a900473ffffffffffffffffffffffffffffffffffffffff1681565b610b46610dec565b1515610b5157600080fd5b80600760006101000a81548173ffffffffffffffffffffffffffffffffffffffff021916908373ffffffffffffffffffffffffffffffffffffffff16021790555050565b60148281600482815481101515610ba857fe5b906000526020600020906003020160020160009054906101000a900463ffffffff1663ffffffff1610151515610bdd57600080fd5b836005600082815260200190815260200160002060009054906101000a900473ffffffffffffffffffffffffffffffffffffffff1673ffffffffffffffffffffffffffffffffffffffff163373ffffffffffffffffffffffffffffffffffffffff16141515610c4b57600080fd5b83600486815481101515610c5b57fe5b9060005260206000209060030201600101819055505050505050565b610c7f610dec565b1515610c8a57600080fd5b600073ffffffffffffffffffffffffffffffffffffffff166000809054906101000a900473ffffffffffffffffffffffffffffffffffffffff1673ffffffffffffffffffffffffffffffffffffffff167f8be0079c531659141344cd1fd0a4f28419497f9722a3daafe3b4186f6b6457e060405160405180910390a360008060006101000a81548173ffffffffffffffffffffffffffffffffffffffff021916908373ffffffffffffffffffffffffffffffffffffffff160217905550565b6000600660003373ffffffffffffffffffffffffffffffffffffffff1673ffffffffffffffffffffffffffffffffffffffff16815260200190815260200160002054141515610d9757600080fd5b6000610da282611187565b9050606481811515610db057fe5b0681039050610dbf828261121a565b5050565b60008060009054906101000a900473ffffffffffffffffffffffffffffffffffffffff16905090565b60008060009054906101000a900473ffffffffffffffffffffffffffffffffffffffff1673ffffffffffffffffffffffffffffffffffffffff163373ffffffffffffffffffffffffffffffffffffffff1614905090565b60028381600482815481101515610e5657fe5b906000526020600020906003020160020160009054906101000a900463ffffffff1663ffffffff1610151515610e8b57600080fd5b846005600082815260200190815260200160002060009054906101000a900473ffffffffffffffffffffffffffffffffffffffff1673ffffffffffffffffffffffffffffffffffffffff163373ffffffffffffffffffffffffffffffffffffffff16141515610ef957600080fd5b8484600488815481101515610f0a57fe5b90600052602060002090600302016000019190610f28929190611656565b50505050505050565b610f39610dec565b1515610f4457600080fd5b8060088190555050565b610f56610dec565b1515610f6157600080fd5b610f6a816114ed565b50565b60008082840190508363ffffffff168163ffffffff1610151515610f8d57fe5b8091505092915050565b826005600082815260200190815260200160002060009054906101000a900473ffffffffffffffffffffffffffffffffffffffff1673ffffffffffffffffffffffffffffffffffffffff163373ffffffffffffffffffffffffffffffffffffffff1614151561100557600080fd5b600060048581548110151561101657fe5b9060005260206000209060030201905061102f816115e7565b151561103a57600080fd5b6002548481151561104757fe5b069350600060028583600101540181151561105e57fe5b04905060405160200180807f6b69747479000000000000000000000000000000000000000000000000000000815250600501905060405160208183030381529060405280519060200120846040516020018082805190602001908083835b6020831015156110e157805182526020820191506020810190506020830392506110bc565b6001836020036101000a03801982511681845116808217855250505050505090500191505060405160208183030381529060405280519060200120141561113757606360648281151561113057fe5b0682030190505b6111766040805190810160405280600681526020017f4e6f4e616d6500000000000000000000000000000000000000000000000000008152508261121a565b61117f8261160e565b505050505050565b600080826040516020018082805190602001908083835b6020831015156111c3578051825260208201915060208101905060208303925061119e565b6001836020036101000a038019825116818451168082178552505050505050905001915050604051602081830303815290604052805190602001206001900490506002548181151561121157fe5b06915050919050565b60006001600460c060405190810160405280868152602001858152602001600163ffffffff168152602001600354420163ffffffff168152602001600061ffff168152602001600061ffff168152509080600181540180825580915050906001820390600052602060002090600302016000909192909190915060008201518160000190805190602001906112b09291906116d6565b506020820151816001015560408201518160020160006101000a81548163ffffffff021916908363ffffffff16021790555060608201518160020160046101000a81548163ffffffff021916908363ffffffff16021790555060808201518160020160086101000a81548161ffff021916908361ffff16021790555060a082015181600201600a6101000a81548161ffff021916908361ffff1602179055505050039050336005600083815260200190815260200160002060006101000a81548173ffffffffffffffffffffffffffffffffffffffff021916908373ffffffffffffffffffffffffffffffffffffffff1602179055506113f96001600660003373ffffffffffffffffffffffffffffffffffffffff1673ffffffffffffffffffffffffffffffffffffffff1681526020019081526020016000205461163890919063ffffffff16565b600660003373ffffffffffffffffffffffffffffffffffffffff1673ffffffffffffffffffffffffffffffffffffffff168152602001908152602001600020819055507f88f026aacbbecc90c18411df4b1185fd8d9be2470f1962f192bf84a27d0704b78184846040518084815260200180602001838152602001828103825284818151815260200191508051906020019080838360005b838110156114ac578082015181840152602081019050611491565b50505050905090810190601f1680156114d95780820380516001836020036101000a031916815260200191505b5094505050505060405180910390a1505050565b600073ffffffffffffffffffffffffffffffffffffffff168173ffffffffffffffffffffffffffffffffffffffff161415151561152957600080fd5b8073ffffffffffffffffffffffffffffffffffffffff166000809054906101000a900473ffffffffffffffffffffffffffffffffffffffff1673ffffffffffffffffffffffffffffffffffffffff167f8be0079c531659141344cd1fd0a4f28419497f9722a3daafe3b4186f6b6457e060405160405180910390a3806000806101000a81548173ffffffffffffffffffffffffffffffffffffffff021916908373ffffffffffffffffffffffffffffffffffffffff16021790555050565b6000428260020160049054906101000a900463ffffffff1663ffffffff1611159050919050565b60035442018160020160046101000a81548163ffffffff021916908363ffffffff16021790555050565b600080828401905083811015151561164c57fe5b8091505092915050565b828054600181600116156101000203166002900490600052602060002090601f016020900481019282601f1061169757803560ff19168380011785556116c5565b828001600101855582156116c5579182015b828111156116c45782358255916020019190600101906116a9565b5b5090506116d29190611756565b5090565b828054600181600116156101000203166002900490600052602060002090601f016020900481019282601f1061171757805160ff1916838001178555611745565b82800160010185558215611745579182015b82811115611744578251825591602001919060010190611729565b5b5090506117529190611756565b5090565b61177891905b8082111561177457600081600090555060010161175c565b5090565b9056fea165627a7a72305820a378a01f5cdd7e39353bfbb943297859f7e46df9f3bd876c706c89ace2efe30d0029",
  "source": "pragma solidity >=0.5.0 <0.6.0;\r\n\r\nimport \"./zombiefeeding.sol\";\r\n\r\ncontract ZombieHelper is ZombieFeeding {\r\n\r\n  uint levelUpFee = 0.001 ether;\r\n\r\n  modifier aboveLevel(uint _level, uint _zombieId) {\r\n    require(zombies[_zombieId].level >= _level);\r\n    _;\r\n  }\r\n\r\n  // function withdraw() external onlyOwner {\r\n   // address _owner = owner();\r\n   // _owner.transfer(address(this).balance);\r\n  // }\r\n\r\n  function setLevelUpFee(uint _fee) external onlyOwner {\r\n    levelUpFee = _fee;\r\n  }\r\n\r\n  function levelUp(uint _zombieId) external payable {\r\n    require(msg.value == levelUpFee);\r\n    zombies[_zombieId].level = zombies[_zombieId].level.add(1);\r\n  }\r\n\r\n  function changeName(uint _zombieId, string calldata _newName) external aboveLevel(2, _zombieId) onlyOwnerOf(_zombieId) {\r\n    zombies[_zombieId].name = _newName;\r\n  }\r\n\r\n  function changeDna(uint _zombieId, uint _newDna) external aboveLevel(20, _zombieId) onlyOwnerOf(_zombieId) {\r\n    zombies[_zombieId].dna = _newDna;\r\n  }\r\n\r\n  function getZombiesByOwner(address _owner) external view returns(uint[] memory) {\r\n    uint[] memory result = new uint[](ownerZombieCount[_owner]);\r\n    uint counter = 0;\r\n    for (uint i = 0; i < zombies.length; i++) {\r\n      if (zombieToOwner[i] == _owner) {\r\n        result[counter] = i;\r\n        counter++;\r\n      }\r\n    }\r\n    return result;\r\n  }\r\n\r\n}\r\n",
  "sourcePath": "D:\\tutorial_work\\test\\contracts\\zombiehelper.sol",
  "compiler": {
    "name": "solc",
    "version": "0.5.1+commit.c8a2cb62.Emscripten.clang"
  },
  "schemaVersion": "3.4.4",
  "updatedAt": "2022-01-12T12:47:23.823Z",
  "devdoc": {
    "methods": {
      "isOwner()": {
        "return": "true if `msg.sender` is the owner of the contract.\r"
      },
      "owner()": {
        "return": "the address of the owner.\r"
      },
      "renounceOwnership()": {
        "details": "Allows the current owner to relinquish control of the contract.\r"
      },
      "transferOwnership(address)": {
        "details": "Allows the current owner to transfer control of the contract to a newOwner.\r",
        "params": {
          "newOwner": "The address to transfer ownership to.\r"
        }
      }
    }
  },
  "userdoc": {
    "methods": {
      "renounceOwnership()": {
        "notice": "Renouncing to ownership will leave the contract without an owner.\r It will not be possible to call the functions with the `onlyOwner`\r modifier anymore.\r"
      }
    }
  }
}